S00E0000752D626F6F742E73726563C0
S31581700000B80000EA14F09FE514F09FE514F09FE5BF
S3158170001014F09FE514F09FE514F09FE514F09FE5C9
S3158170002060007081C0007081200170818001708153
S31581700030E001708140027081A0027081EFBEADDEF9
S31581700040DEC0AD0B0000A0E10000A0E10000A0E1E0
S315817000500000A0E10000A0E10000A0E10000A0E1A5
S3158170006028D01FE500E08DE500E04FE104E08DE5E5
S3158170007013D0A0E30DF069E10FE0A0E10EF0B0E1DD
S3158170008048D04DE2FF1F8DE850201FE50C0092E8A5
S3158170009048008DE234508DE20E10A0E10F0085E8A4
S315817000A00D00A0E1A90000EB0000A0E10000A0E135
S315817000B00000A0E10000A0E10000A0E10000A0E145
S315817000C004D04DE200008DE590001FE500E080E5EB
S315817000D000E04FE104E080E500E090E500009DE5F9
S315817000E004D08DE248D04DE2FF1F8DE8B4201FE524
S315817000F00C0092E848008DE234508DE20E10A0E13A
S315817001000F0085E80D00A0E1A40000EB0000A0E1DE
S315817001100000A0E10000A0E10000A0E10000A0E1E4
S31581700120E8D01FE500E08DE500E04FE104E08DE564
S3158170013013D0A0E30DF069E10FE0A0E10EF0B0E11C
S3158170014048D04DE2FF1F8DE810211FE50C0092E823
S3158170015048008DE234508DE20E10A0E10F0085E8E3
S315817001600D00A0E1850000EB0000A0E10000A0E198
S315817001700000A0E10000A0E10000A0E10000A0E184
S3158170018048D11FE500E08DE500E04FE104E08DE5A3
S3158170019013D0A0E30DF069E10FE0A0E10EF0B0E1BC
S315817001A048D04DE2FF1F8DE870211FE50C0092E863
S315817001B048008DE234508DE20E10A0E10F0085E883
S315817001C00D00A0E1650000EB0000A0E10000A0E158
S315817001D00000A0E10000A0E10000A0E10000A0E124
S315817001E0A8D11FE500E08DE500E04FE104E08DE5E3
S315817001F013D0A0E30DF069E10FE0A0E10EF0B0E15C
S3158170020048D04DE2FF1F8DE8D0211FE50C0092E8A2
S3158170021048008DE234508DE20E10A0E10F0085E822
S315817002200D00A0E1450000EB0000A0E10000A0E117
S315817002300000A0E10000A0E10000A0E10000A0E1C3
S3158170024008D21FE500E08DE500E04FE104E08DE521
S3158170025013D0A0E30DF069E10FE0A0E10EF0B0E1FB
S3158170026048D04DE2FF1F8DE830221FE50C0092E8E1
S3158170027048008DE234508DE20E10A0E10F0085E8C2
S315817002800D00A0E1410000EB0000A0E10000A0E1BB
S315817002900000A0E10000A0E10000A0E10000A0E163
S315817002A068D21FE500E08DE500E04FE104E08DE561
S315817002B013D0A0E30DF069E10FE0A0E10EF0B0E19B
S315817002C048D04DE2FF1F8DE890221FE50C0092E821
S315817002D048008DE234508DE20E10A0E10F0085E862
S315817002E00D00A0E1210000EB5F0000EA00000FE144
S315817002F01F00C0E3D30080E300F029E1010000EB29
S315817003006A0000EB1EFF2FE10000A0E37AFF17EE73
S31581700310FDFFFF1A170F08EE150F07EE100F11EE7E
S31581700320030CC0E38700C0E3020AC0E3020080E3E6
S31581700330010A80E3100F01EE0EF0A0E1EAFFFFEAF9
S3158170034004C09FE50CC08FE01CFF2FE1AD0B000050
S3158170035004C09FE50CC08FE01CFF2FE10D0B0000E0
S3158170036004C09FE50CC08FE01CFF2FE1690B000074
S3158170037004C09FE50CC08FE01CFF2FE1A10B00002C
S3158170038004C09FE50CC08FE01CFF2FE1250B000098
S3158170039004C09FE50CC08FE01CFF2FE1A50B000008
S315817003A004C09FE50CC08FE01CFF2FE1E10A0000BD
S315817003B0FFFFFFFFFFFFFFFFFFFFFFFFFFFFFFFF56
S315817003C010402DE9FBD300EB1F0300EB3C0300EBE0
S315817003D0200000EB0000A0E3170F07EE1080BDE848
S315817003E00030A0E37EFF17EEFDFFFF1A9A3F07EEFE
S315817003F01EFF2FE170402DE90040A0E10150A0E180
S31581700400D90200EB000050E37080BD08050054E10D
S315817004107080BD28364F07EE204084E2FAFFFFEAEE
S3158170042070402DE90040A0E10150A0E1CE0200EBC1
S31581700430000050E37080BD08050054E10200003A67
S315817004400030A0E39A3F07EE7080BDE83E4F07EE1D
S31581700450204084E2F7FFFFEA1EFF2FE110402DE96D
S31581700460F50200EB1040BDE8FC0200EA38009FE51A
S3158170047000D080E504E080E500E00FE108E080E5EA
S3158170048010EF11EE0CE080E597FFFFEA00D0A0E156
S3158170049001E0A0E110009FE50C1090E5101F01EEC0
S315817004A0081090E501F029E11EFF2FE140797481F2
S315817004B078009FE50700C0E300D0A0E121D400EB6E
S315817004C000D0A0E10090A0E106D400EB0000A0E38B
S315817004D0D0D300EB4C0099E50700C0E300D0A0E1D2
S315817004E0549099E50CE08FE2500099E500E08EE03A
S315817004F03C0099E51B0000EA100000EB80FFFFEBE2
S315817005002C009FE52C309FE50010A0E3002053E07E
S31581700510D20000EB0FD400EB16D400EB0900A0E1FA
S315817005203C1099E510E09FE51EFF2FE150FBFFFF20
S31581700530107F0000F4A5748130427581951B71819D
S315817005403C0099E5102F11EE022A12E20010A003E9
S3158170055090109F15FC05B0E8FC05A1E8FC05B0E894
S31581700560FC05A1E81EFF2FE108304FE264109FE57C
S31581700570031081E0014050E01500000A54109FE598
S31581700580031081E050209FE5032082E0000CB1E8E2
S31581700590000CA0E8020051E1FBFFFF3A3C109FE599
S315817005A0032081E038109FE5033081E00300B2E8D3
S315817005B0FF1001E2170051E30300001A040080E086
S315817005C0001090E5041081E0001080E5030052E18F
S315817005D0F5FFFF3A1EFF2FE198FAFFFF8CA004000A
S315817005E08CA00400943B05000000FFFF4B4608B5C4
S315817005F01A6884B0D36B0093126C002301930292B4
S31581700600039302AA0133694605F0B6FA04B008BCB1
S31581700610994600BD70470000F0B54B46CE4600B591
S315817006201B6882B05B6B01930300040094331D4891
S315817006301E680F0020F078FC002809D001AA1021CD
S3158170064031F083FC002824DB1748019931F0E6FBF1
S315817006508025AD00FFF7DEFF3D40144900D1144976
S31581700660144831F0DBFB8C20C00118F0CBFDC02023
S31581700670C00018F0C7FD34F0AFFE2300A4331B68A9
S31581700680002B0AD0A0342268002D02D1019928004E
S31581700690B04702B080BCB946F0BD4B461B689A6BB9
S315817006A0F2E7C0467C87738183877381658773819F
S315817006B09F737481A88773817047000030B5CE4669
S315817006C0040000B50B4820F02FFC2300A4331B686F
S315817006D0002B07D0200003F0A3FA002804D0064827
S315817006E030F09CFE0548FBE72000FFF7E5FF20BC54
S315817006F0A94630BDB4AF7381C1877381D687738143
S31581700700F0B5C023CE46070000B504000D691F40C1
S31581700710184219D1403306001E40184207D028006E
S31581700720FFF7CCFF3E00300080BCB946F0BDC023D8
S31581700730DB00184204D021002800FFF76DFFF2E735
S315817007402800FFF7BBFFF6E701267642EBE700004C
S3158170075030B5A030CE46040000B5006800280CD0B4
S31581700760084926F074FC002807DD2068FFF73EFFF4
S31581700770002802D0044812F076F934F02DFE20BCA0
S31581700780A94630BDFD8773810588738102004B460A
S31581700790A032943008B503681068984708BC9946AA
S315817007A000BD000010B5431D0400D87FA31DDB7FFB
S315817007B01B020343E01DC07F0004184323000833E6
S315817007C0DB7F1B0603431B48834207D01A4883424B
S315817007D004D01A4812F047F9012010BD230028333E
S315817007E0187801331B781B02034320002A30007866
S315817007F00004184323002B331B781B0603430B60BD
S3158170080023002C33187801331B781B020343200095
S315817008102E3000780004184323002F331B781B0673
S315817008200343136006480A68210031F0F7FA002005
S31581700830D3E7C04618286F01626F7800C3967381BB
S31581700840D796738100000000000000000000000050
S3158170085000000000000000000000000000000000A1
S31581700860033010E200C0A0E11E00001A011481E17C
S31581700870011881E10130A0E1100052E30F0000BA46
S3158170088000412DE90180A0E101E0A0E1402052E222
S315817008900A41ACA80A41ACA80A41ACA80A41ACA8E5
S315817008A0F9FFFFCA0081BD08200012E30A41AC1826
S315817008B00A41AC18100012E30A41AC180041BDE838
S315817008C0080012E30A00AC18040012E304108C14B9
S315817008D0020012E30110CC140110CC14010012E352
S315817008E00110CC141EFF2FE1042052E2F7FFFFBAEC
S315817008F0020053E30110CCB40110CCD40110CCE4C6
S31581700900032082E0D8FFFFEA010050E11EFF2F012C
S3158170091011402DE9042052E22B0000BA03C010E287
S3158170092000F0D1F53100001A03C011E23B00001AC4
S315817009301C2052E2E0012DE90C0000BA00F0D1F5DD
S31581700940602052E21CF0D1F5020000BA3CF0D1F57C
S315817009505CF0D1F57CF0D1F5F851B1E8202052E206
S31581700960F851A0E8FAFFFFAA600072E3F9FFFFAAC7
S315817009701CC012E220C06CE20CF08F10110000EAEC
S315817009800000A0E1043091E4044091E4045091E4C4
S31581700990046091E4047091E4048091E404E091E44C
S315817009A00CF08FE00000A0E10000A0E1043080E44B
S315817009B0044080E4045080E4046080E4047080E440
S315817009C0048080E404E080E4E001BDE8822FB0E138
S315817009D00130D1140140D12401C0D1240130C01419
S315817009E00140C02401C0C0241140BDE81EFF2FE123
S315817009F004C06CE202005CE30130D1C40140D1A431
S31581700A0001E0D1E40130C0C40140C0A40C2052E0A1
S31581700A1001E0C0E4ECFFFFBA03C011E2C3FFFF0A35
S31581700A200310C1E302005CE304E091E42C00000A48
S31581700A30570000CA1C2052E21F0000BAE0032DE95C
S31581700A4000F0D1F5602052E21CF0D1F5020000BAB7
S31581700A503CF0D1F55CF0D1F57CF0D1F5F000B1E8E0
S31581700A602E34A0E1202052E20053B1E8043C83E1A8
S31581700A702444A0E1054C84E12554A0E1065C85E11E
S31581700A802664A0E1076C86E12774A0E1087C87E182
S31581700A902884A0E1098C88E12994A0E10C9C89E1E4
S31581700AA02CC4A0E10ECC8CE1F813A0E8E9FFFFAA73
S31581700AB0600072E3E8FFFFAAE003BDE81CC012E2A2
S31581700AC00500000A2E34A0E104E091E404C05CE2E2
S31581700AD00E3C83E1043080E4F9FFFFCA031041E2E2
S31581700AE0B9FFFFEA1C2052E21F0000BAE0032DE92C
S31581700AF000F0D1F5602052E21CF0D1F5020000BA07
S31581700B003CF0D1F55CF0D1F57CF0D1F5F000B1E82F
S31581700B102E38A0E1202052E20053B1E8043883E1F7
S31581700B202448A0E1054884E12558A0E1065885E16D
S31581700B302668A0E1076886E12778A0E1087887E1D1
S31581700B402888A0E1098888E12998A0E10C9889E133
S31581700B502CC8A0E10EC88CE1F813A0E8E9FFFFAAC2
S31581700B60600072E3E8FFFFAAE003BDE81CC012E2F1
S31581700B700500000A2E38A0E104E091E404C05CE22D
S31581700B800E3883E1043080E4F9FFFFCA021041E236
S31581700B908DFFFFEA1C2052E21F0000BAE0032DE9A7
S31581700BA000F0D1F5602052E21CF0D1F5020000BA56
S31581700BB03CF0D1F55CF0D1F57CF0D1F5F000B1E87F
S31581700BC02E3CA0E1202052E20053B1E8043483E147
S31581700BD0244CA0E1054484E1255CA0E1065485E1BD
S31581700BE0266CA0E1076486E1277CA0E1087487E121
S31581700BF0288CA0E1098488E1299CA0E10C9489E183
S31581700C002CCCA0E10EC48CE1F813A0E8E9FFFFAA11
S31581700C10600072E3E8FFFFAAE003BDE81CC012E240
S31581700C200500000A2E3CA0E104E091E404C05CE278
S31581700C300E3483E1043080E4F9FFFFCA011041E28A
S31581700C4061FFFFEA002070474B4608B51B680F4865
S31581700C50596B07F095FD0E484B46D033196807F0EE
S31581700C608FFD0C484B46996C07F08AFD0A484B46B6
S31581700C70D96C07F085FD8022084892014B46AC33CA
S31581700C80196831F0CBF808BC994600BDC87F73816D
S31581700C90D47F7381DD7F7381E47F7381EE7F73810E
S31581700CA04B46DA6C9A64DA6C0020103A08B4DA64CE
S31581700CB008BC994670474B4608B569469A6B80233E
S31581700CC0DB012FF0F7FA08BC994600BD4B4608B494
S31581700CD09B6C034A08330020136008BC99467047A1
S31581700CE04000708170470020704700004B46024873
S31581700CF008B530F093FBC046AB807381F0B5CE46B4
S31581700D0000B5A2B002AD040046498022280034F0B5
S31581700D106BFBA26B4448E16B266C31F07FF8370F21
S31581700D203F074B465A68D20708D5186DA26B1B6D63
S31581700D30E16BD21A091A3D4831F070F8E36A226B79
S31581700D40616B3B4831F06AF8236A626AA16A3948F5
S31581700D5031F064F82369009337486369A269E16960
S31581700D6031F05CF8236800933448E1686368A2685F
S31581700D7031F054F84E21002F00DB20315A22730056
S31581700D8000D420324323B00000D420335627F60096
S31581700D9000D420372A48009731F040F8206C2949D1
S31581700DA0030600D52849274A430600D5264A1F23BC
S31581700DB003409B00EB58254D800600D4244D009549
S31581700DC0244831F02BF8226C20231700E56B1F40E5
S31581700DD01A4217D103239D43082616E063005A5B96
S31581700DE01D48002C00D01D48310031F017F80134B0
S31581700DF010E0022CF2D11A4831F010F822B080BC82
S31581700E00B946F0BD01239D430426164831F006F894
S31581700E1004246442002FECD1002CECDCA3005A59D7
S31581700E20DEE7C046A85573811B13748115137481CF
S31581700E303D1374816113748185137481B5137481C3
S31581700E40E5137481670F74812C81738102137481A8
S31581700E509F737481F5137481071374810F13748171
S31581700E60F40374811414748130B5CE46040000B5D0
S31581700E70054830F0D3FFE36B2000043BE363FFF753
S31581700E803DFFFFF733FFC046F1C8738130B5CE465B
S31581700E90040000B5054830F0C1FFE36B2000043BC8
S31581700EA0E363FFF72BFFFFF721FFC046A0C773816E
S31581700EB030B5CE46040000B5054830F0AFFFE36B20
S31581700EC02000083BE363FFF719FFFFF70FFFC0466A
S31581700ED098C6738130B5CE46040000B5054830F0AA
S31581700EE09DFFE36B2000083BE363FFF707FFFFF786
S31581700EF0FDFEC046DBB0738130B5CE46040000B5C9
S31581700F00054830F08BFFE36B2000083BE363FFF706
S31581700F10F5FEFFF7EBFEC046C5C5738130B5CE468B
S31581700F20040000B5054830F079FFE36B2000083B7B
S31581700F30E363FFF7E3FEFFF7D9FEC04659B87381C5
S31581700F4030B5CE46040000B5054830F067FFE36BD7
S31581700F502000083BE363FFF7D1FEFFF7C7FEC0466B
S31581700F605EB87381011080E02CFDFFEA013080E16B
S31581700F701F0013E30600000A0120A0E110402DE94D
S31581700F800010A0E110009FE54ED100EB0000A0E3B8
S31581700F901080BDE80100A0E31EFF2FE102977381E7
S31581700FA00129A0E3D42089E5D41099E53C2099E5FF
S31581700FB00000A0E3012042E03C2089E53C2099E5D0
S31581700FC02228A0E10228A0E13C2089E53C2099E510
S31581700FD0D02089E51EFF2FE1F0FFFFEA1EFF2FE18A
S31581700FE0D03099E5001A81E1031B81E3001183E713
S31581700FF01EFF2FE1002099E5043099E5010013E386
S315817010001EFF2F01802182E010402DE93C0092E580
S31581701010200AA0E1403092E53C1092E5233AA0E1A6
S31581701020213A83E0000053E11080BD981E10A0E341
S31581701030EAFFFFEB010080E2F5FFFFEA103F11EE58
S31581701040013A83E3103F01EE1EFF2FE1103F11EE4F
S31581701050103F11EE013AC3E3103F01EE1EFF2FE1FF
S3158170106010402DE9104F11EE014014E20F00001A65
S31581701070D9FFFFEB0400A0E11210A0E3014084E2E6
S31581701080D6FFFFEB010A54E3F9FFFF1A0000A0E3D4
S31581701090D7FFFFEBD03099E5103F02EE1C309FE50C
S315817010A0103F03EE103F11EE013083E3103F01EEE6
S315817010B0103F11EE043083E3103F01EE1080BDE8DE
S315817010C055555555103F11EE040013E31EFF2F0140
S315817010D010402DE9104F11EEC0FCFFEB0540C4E3C3
S315817010E0104F01EE1080BDE8100F11EE2001A0E1C6
S315817010F0010000E21EFF2FE1000050E3100F6F1117
S31581701100200060121EFF2FE101207047024810B542
S3158170111011F0A9FC002010BD01097481064B1B6872
S315817011200360064B1B684360054B1B688360054BE8
S315817011301B68C360002070470038C2010438C20141
S315817011400838C2010C38C201054B1B68DA049B064C
S31581701150D20E9B0F01320133534302485843704775
S315817011602800C20100366E01104B30B5CE4600B5EF
S3158170117098680F49C04334F027F94946C4310A68E3
S315817011804B46C033824209D80A681C68821A121982
S315817011901A600860186820BCA94630BD0C68054D78
S315817011A01A6852191218121BF2E7C046100CC20146
S315817011B0C05D00000CBB0200034B012252425A6093
S315817011C0083200201A607047100CC20130B5CE46C5
S315817011D000B50400FFF7C8FF001B20BCA94630BDCF
S315817011E030B50A4C18235843A3680125DB43002880
S315817011F000DC30BDA268D243934203D29B1A181881
S315817012001300F4E7A91ACB18F9E7C046100CC2018E
S315817012104B4608B5FFF7A8FF002108BC994600BD6B
S31581701220FA2080007047000030B5CE4600B50400C4
S3158170123000230A4903221420DD7D2FF0EAFE00285F
S3158170124006D1A54206D206482A00210030F0E6FD75
S315817012500120404220BCA94630BDC046E2E8738178
S31581701260E6E87381F0B5CE4600B592B000210D22C5
S31581701270060005AD0EA80D9134F05EF92800FFF7D2
S315817012804DFF041E48D1059B002B45D00C2206A923
S315817012902EF07EFD030243D0089002272649220054
S315817012A009A830F099FD09A9300025F0DCFE0028E7
S315817012B01DD0002C39D1214909A82FF0C3FD09A869
S315817012C01FF032FE002812D1230103A93B430B7014
S315817012D02B684B70AB891A021B0A1A43EB688A809A
S315817012E0180E1B0C8870CB7009A81FF07FFE013415
S315817012F0042CD3D1124C20001FF016FE00280BD17E
S31581701300EB68112100930F4A059B0DA830F04FFDB4
S315817013100DA920001FF0A8FD12B080BCB946F0BDA2
S3158170132080231B0403430893B7E70749220009A862
S3158170133030F052FDC3E7C046C1117481CC117481FE
S31581701340DE117481E6117481D411748130B5CE4603
S315817013500C0000B5012906DCFFF7D6FE03230828A9
S3158170136002D0002C00D00023180020BCA94630BDC5
S315817013704B4608B41B68034A00209A6308BC994699
S315817013807047C046000100804B4608B50320FFF7C1
S315817013904BFF431C11D180210906080012F0D6FD3E
S315817013A04B4618644B46196C80221206914200D9BD
S315817013B01A64002008BC994600BD436A4A461B05DB
S315817013C01364EFE74B4608B5FFF79EFE023843423A
S315817013D0584108BC994600BD70B52E4ECE4600B5B3
S315817013E0002195B030001FF03FFD2B4D0021280064
S315817013F01FF03AFD294C002120001FF035FDFFF7C3
S3158170140083FE0C283BD1264930001FF02DFD01202B
S31581701410FFF70AFF431C0FD0816900290CD0C2697E
S31581701420002A28D0002303930293019301330093FA
S315817014301C4809332EF056F90220FFF7F5FE431C3E
S3158170144010D0036A002B0DD0C01800280AD0402115
S315817014500090154B154A04A830F0A9FC144804A9CC
S315817014601FF002FD4B46986EFFF7FCFE002015B00B
S3158170147040BCB14670BD28001FF02CFDDCE70D49DC
S31581701480012802D00228D7D1054920001FF0ECFC33
S31581701490D2E7C0469AF97381A5F97381B4F97381DC
S315817014A0DD737481448A74819F737481C0F9738189
S315817014B0C9F973819C8073810020704730B5CE469F
S315817014C000B50400FFF7CEFE200004F0DFFB00209C
S315817014D020BCA94630BD000030B5CE4600B514009B
S315817014E01A00049B0500D3188A4208D88B420ED9FC
S315817014F00A48290030F092FC1220404204E0A24250
S31581701500F6D30020A342F3D920BCA94630BD002072
S31581701510A242F9D2A342F7D3EAE7C04637977381DD
S31581701520F0B5284F284CCE4600B5284E84B01D00A4
S315817015300290039208003B0002222100009602F07D
S315817015406FF9002803D0224811F08DFA19E03968B5
S31581701550326800290DD11F4E1F4F039902982300BF
S3158170156002220196009704F07FFE00280ED01B4858
S31581701570EAE70A9B00931A482B00FFF7ADFF002814
S31581701580E9D0012004B080BCB946F0BD39683268B3
S3158170159000290DD12300A033186808F0A7F8200020
S315817015A002F0CAFA0028EDD00E4830F037FCE8E731
S315817015B00A9B00930C482B00FFF78EFF0028E0D121
S315817015C0E8E7C0468CA67481F4A5748190A674816F
S315817015D0CA8A738198A6748194A67481F28A7381FA
S315817015E0EF8A7381168B73812AE273814B4608B5B4
S315817015F0FFF779FB08BC994600BD0000F0B5CE4671
S3158170160000B5066990B03200C032136801250B436C
S31581701610070006911360294219D0B34C9522920026
S315817016200021200033F088FFB0481FF021FD230090
S31581701630BC33C034186002F01FF8079002F030F89E
S31581701640079900230200AA482EF052FF2560069B57
S315817016501B0505D53868002802D0002130F06BFC57
S31581701660069B9B0700D49FE17B690FAA0EA90793FE
S31581701670386800230E930F9302F07AF89A4D002200
S31581701680290008310B009B49DA670A60040002F071
S31581701690A3F8012808D0022800D17FE007999648DF
S315817016A030F0BCFB5B2193E02100944830F0B6FBAF
S315817016B02368FF20190E1A060A4300041902014095
S315817016C00A43FF211B0A09020B4013438C4ABC351E
S315817016D02D688C48934205D1200001F045FD002884
S315817016E004D1894811F0BFF9162171E0200001F00B
S315817016F08BFE002D0ED0854811F0B5F9200001F0D2
S3158170170058FD002803D1824830F088FBECE7814888
S3158170171011F0A9F9617F022903D07F4830F07EFBF1
S31581701720E2E7002CE0D0A37F042B1ED01AD8012BC0
S3158170173001D0022BB2D16C4A21001300083340319B
S31581701740D967E368FF25180E190601432D0418021F
S3158170175028400143FF201B0A0002034088320B4355
S31581701760136008E00E2B99D1E5E7624B6B4A002135
S31581701770200001F051FD4022694821002FF038FC8C
S31581701780594B01221C605A64200002F025F8012809
S3158170179028D0022800D172E0624879E0554B0593D2
S315817017A05E4B0493002303936433029301900090FC
S315817017B00EAB0FAA2100280005F024FF002806DB56
S315817017C00F9B2B650E9BEC64AB646865DCE702212D
S315817017D05548494230F022FB0124200010B080BC6C
S315817017E0B946F0BD404BA17F1A00913211701A0033
S315817017F0E17F903211701A00217F92321170E26806
S31581701800191D8C46150E1006FF21284309041502F1
S315817018100D402843FF252D02120A2A4002432000DB
S31581701820403012186146CA6722698C218C46100E27
S31581701830110608430790FF201102000401400798A2
S31581701840120A9C442A4001431143624693331160C4
S31581701850627F1A702448030093331B78032B01D05F
S31581701860182B7BD1314A0FAB032102F05DF9002829
S3158170187000DB87E0023000D184E02D4808E01A4D04
S315817018802C4A696DE86C04F0DDFF002803D02A4884
S3158170189011F0E9F8A0E7294A696DE86C04F0EEFF6A
S315817018A0002801D02648F3E7264A696DE86C04F072
S315817018B091FF002801D02448EAE7244A696DE86CD3
S315817018C004F0A4FF002801D02148E1E7E86C05F017
S315817018D01FFC2B1D1F4A696DD867E86C05F000F8EF
S315817018E00028B7D01C48D3E7F4A574813E907381E4
S315817018F0B8A674817CA67481B59073814590738185
S31581701900561905272DED738142ED73817790738119
S315817019105AED7381929073819690738178A6748152
S31581701920F8A574817A917381D690738188A67481B2
S315817019309D91738185A67481FA90738184A67481D1
S315817019401191738186A674812F91738187A6748113
S315817019504491738180A674815B917381436C002BF2
S3158170196000D1A8E08369FF25190E1A060A432D0452
S31581701970190229400A43FF211B0A09020B40943040
S3158170198013430360C24A130091331B780E2B0AD11D
S3158170199013000833D86F110013008C33943118609B
S315817019A00B681B180B60D467069B5B0727D5386855
S315817019B0002800D18EE0002130F0BDFABB68079314
S315817019C0B34B79681C0091342478A51EAC46624667
S315817019D0FD252A4201D00E2C11D192331C78052C0B
S315817019E005D01C2C0BD8AB4BE340DB0707D5002306
S315817019F0079A0093FFF794FD041E00D0EDE600234D
S31581701A000793069B1B0700D4A1E0FFF76CF9F36F70
S31581701A100C93331DDB6F0D9333000833DB6F0993A2
S31581701A20330088331B680B9333008C331B680A939E
S31581701A30330090330A9C07901B7808933300913357
S31581701A401D780E2D14D1089B002B11D00B9B8022F3
S31581701A509900914B3000C918090D09059203C4305C
S31581701A602EF0C8FC041E00D109E13300943318604E
S31581701A700FAB049380231B0403930B9B0293099BE7
S31581701A8021000193099A2B000898009401F054FC67
S31581701A900F99051E38D008980C1B01F0A5FC2B00F8
S31581701AA00100263319D1079B002B01D0FFF71AF954
S31581701AB00324644291E6036D002B09D0416D774A08
S31581701AC0C06C04F01BFF002800D15BE77448DFE629
S31581701AD07448DDE6744B186870E780231B049C425A
S31581701AE00CD3724830F09AF9714830F097F9079BA8
S31581701AF0002B00D1A9E0012464429EE06D4B2A003F
S31581701B00180030F08BF9EFE71F230A980D1B32000E
S31581701B10C9189843883299431560091A33F0C4FC01
S31581701B20089B0F9A002B02D1099BA3424FD00D9B24
S31581701B30A3424CD90C9B934249D2736C002B42D0F1
S31581701B40F31CDB7F042B02D15B4810F08CFF069B64
S31581701B50DB061AD53300983319685A683500143301
S31581701B60A835300008930093521A2B00C43001F0C7
S31581701B707BFF041E00D030E6296850481FF0AAF911
S31581701B80089B4F4819681FF0A5F9069B9B0627D4B9
S31581701B9034009234207800F0C3FA051E31D1F823CF
S31581701BA0069ADB001A422CD0079B002B01D0FFF7D7
S31581701BB099F8207801F090FB424B22780100180049
S31581701BC030F02CF908E6404810F04DFF8FE733006E
S31581701BD08C3319683000521AC4302EF061FBB6E727
S31581701BE035003400C434A0352000296804F0ECF93E
S31581701BF032002000A432290004F074FA041EC7D082
S31581701C00EBE5069B4020034226D1069B802003424A
S31581701C102BD18020069B400003422BD1069C8020CD
S31581701C20069BC000044003422AD02A00390000F086
S31581701C3059FA079B0400002B01D0FFF753F8E31C78
S31581701C4000D135E7631C00D0C7E5204830F0E6F84F
S31581701C5019F0D8FB01242CE73900A847041ED4D08B
S31581701C6021001B4830F0DAF8B7E53900A847041E21
S31581701C70CFD0F5E73900A847041ECFD0F0E701240D
S31581701C80079B002B00D1A8E5FFF72CF8A5E5C04688
S31581701C90F4A5748100400014FFFF0F0088A674813B
S31581701CA0C7917381E8917381547974810C92738130
S31581701CB0559273813C92738172927381F39273811F
S31581701CC0009373810B937381AC92738155937381F6
S31581701CD0399373814B4608B5034B04494361FFF7CA
S31581701CE08DFC08BC994600BD389073811F1F00001A
S31581701CF04B4608B5034B04494361FFF77FFC08BC2B
S31581701D00994600BDBD9673811017000030B5CE46D9
S31581701D1000B520220021040033F00EFC01232373C9
S31581701D20024B236120BCA94630BDC046F4A574819F
S31581701D3030B58023CE46DB00002400B598420DD1A4
S31581701D400B6901345A6C002A08D094331D68054892
S31581701D50290030F063F84B461868A847200020BCEC
S31581701D60A94630BDBDAD73814B4608B58023DB0076
S31581701D700022984207D108691300943000680221C5
S31581701D8030F000FB0122100008BC994600BDF0B509
S31581701D90CE4600B5040082B01F0015000026019161
S31581701DA0019B9E4203DB02B080BCB946F0BD002E1A
S31581701DB001D027700134296820002FF043F801CDB6
S31581701DC02FF09AF801362418EAE70000F0B58022E0
S31581701DD0CE460C00D200002300B590421CD10D690D
S31581701DE001336A6C002A17D012481FF09DF80028BB
S31581701DF00AD0002130F09FF8A169060000290FD022
S31581701E00E2690A23FFF7C3FF94352C680A482100DB
S31581701E1030F004F8A0470123180080BCB946F0BDA4
S31581701E2006481FF081F8011EEED030002FF00AF8B7
S31581701E30EAE7C0467AAD738183AD7381B4AF73813E
S31581701E4030B5CE4600B50D000C691FF029F9002812
S31581701E5008D18834064821681FF03CF8002020BCE0
S31581701E60A94630BD94342368E969A8699847F5E72E
S31581701E70F6AD738130B58022CE4600B50C0086B042
S31581701E80D2000023904204D10B695A6C002A05D185
S31581701E900123180006B020BCA94630BD943302AD2B
S31581701EA01A680C4928002FF097FFE3691B68009325
S31581701EB0019533F0D1FA041E01D033F0B5FA0021C1
S31581701EC06B460222080007F061F9002CE0D033F0EE
S31581701ED0DBFADDE7F0F47381F0B58022CE4600B58A
S31581701EE00C0084B0D2000023904232D10D69013347
S31581701EF06A6C002A2DD0EB1CDB7F2F68042B2DD0CA
S31581701F000027A369002B33DD00260196E369B200B1
S31581701F10D0582EF0F1FF019B013601301B180193C9
S31581701F20A369B342F2DC019811F028F9E269A169DB
S31581701F3020230600FFF72BFF94352C68104821006B
S31581701F402FF06CFF0F4A39004B4618683300A04753
S31581701F500123180004B080BCB946F0BD03AB02AA58
S31581701F600121380001F058F9039B002BC8D0C8E7CE
S31581701F7005481EF0D9FF061EDED1024EDCE7C0464B
S31581701F8031AD73819F737481B4AF73814B4BF0B5EF
S31581701F90CE4600B5040088B018000E0004931EF07A
S31581701FA0C3FF039000282BD00023451E1F00059385
S31581701FB003982EF0A1FFB8420FD8059B002B1FD036
S31581701FC0E30502D53E482FF029FF31002000FEF748
S31581701FD097FB08B080BCB946F0BD6B783D2B0CD1B0
S31581701FE0002F0AD02B78662B07D1A81C00212FF0E1
S31581701FF0A2FF0123184200D0059301370135D7E737
S31581702000E30502D52F482FF009FF8023DB000020DE
S315817020109C42DED1346925002300A035A43329681A
S315817020201B680793814235D02600C436300003F091
S31581702030CBFF300007AA290004F054F8061E27D179
S31581702040286803F023FE204A2868310025F02AFE8D
S31581702050002801DA831C13D104981EF065FF061ED1
S3158170206018D02F682EF048FF012301931749049ADF
S31581702070C01800903300380003F0C0FB002809DADD
S3158170208025F004FA124B1349020018002FF0C6FE90
S3158170209001209EE72000FEF75BFB230094332A68BC
S315817020A019680D482FF0BAFE10F008FD2000FEF772
S315817020B06DFB0A4810F0D7FCEAE7C046B4AF73816E
S315817020C0FFAD738116AE73813CAE73813BAE738106
S315817020D043AE7381BA7D738156AE738192AE7381CD
S315817020E070477047F0B5CE4600B50D0004001600F6
S315817020F0FFF7F6FFFFF7F5FF29002000B0472B6940
S31581702100002091331B78012B04D0044BE418631E95
S315817021109C41604280BCB946F0BDC04600FEFFFF5F
S31581702120014B8000C05870470C57738103681A78C9
S31581702130002A01D00A2A00D1704701330360F5E77E
S315817021404B4608B582680100002A00D1426803486F
S315817021502FF064FE08BC994600BDC046A9F673810E
S31581702160F0B5274CCE4600B5A54400930B78050093
S315817021700E0009AC01922F2B1DD1037B002B1AD037
S315817021800023237030002EF0B7FE070020002EF05A
S31581702190B3FE80239B003F189F4213D919483200A2
S315817021A021002FF03BFE242040428A239B009D44D0
S315817021B080BCB946F0BD80222969920020002EF03C
S315817021C048FEDFE7310020002EF04DFE21000E48DB
S315817021D02FF024FE0D49019A04A82FF0FDFD6E683B
S315817021E003AB04AA21002800B0470028DDDB009BE1
S315817021F00120002BD9D0009A039B1360D5E7C04686
S31581702200D8FDFFFFB2E87381CDE87381F0F47381F5
S3158170221070B5CE4600B5040083B010000D001E0067
S315817022201EF002FF00280FD001AA10212FF08DFE1B
S3158170223000280CDB019A330029002000FFF790FFFC
S3158170224003B040BCB14670BD02204042F8E716200B
S31581702250FBE730B5CE4600B50400406810F0DCFE71
S31581702260E06810F0D9FE206910F0D6FE606910F032
S31581702270D3FEA06910F0D0FEE06910F0CDFE206A21
S3158170228010F0CAFE606A10F0C7FEA06A10F0C4FE34
S31581702290200010F0C1FE20BCA94630BDF0B5CE46F7
S315817022A000B507680C001E4984B006003D00029394
S315817022B02B78002B18D1EB1B581C009310F05EFF06
S315817022C0206000280CD0164B00220393009B216856
S315817022D0934212D1009A00238B5401333560636027
S315817022E004B080BCB946F0BD202A02D1C85C1042C8
S315817022F0E1D19A42DFD00135DAE702988B180193E2
S31581702300BB5C002807D003980121C05C084202D0CB
S3158170231020331B061B0E019901320B70D6E7C0461E
S315817023203E7E7381F0B5CE4600B50C00036882B0EF
S3158170233005001621002001260193616019782029F4
S315817023401ED009291CD0002800D00193019B232916
S3158170235008D10021012718781E00002815D100297F
S3158170236000D00193019B19780A2915D10022013376
S3158170237062600193019B2B6002B080BCB946F0BD4F
S3158170238001333000DAE73900E5E701330A28FAD1FB
S315817023900029E7D00196E5E7002901D10222E6E717
S315817023A0022A06D100230832210001A8FFF776FFA1
S315817023B0E0E701232022210001A8FFF76FFF0027A4
S315817023C0074BFE00F61831680029D3D020682EF0AD
S315817023D06BFD002802D173686360CBE70137EFE745
S315817023E0885F738170B5CE4600B583B00D000222C9
S315817023F0694606680400FFF795FF019801280BD09E
S3158170240021680748891B32002FF008FD162040424B
S3158170241003B040BCB14670BD009B2B60F8E7C046E7
S31581702420CF037481F0B5CE4600B582B00E0002221C
S31581702430694607680500FFF775FF019C012C0BD073
S3158170244029680B48C91B3A002FF0E8FC16204042D8
S3158170245002B080BCB946F0BD009D0A2200212800D9
S315817024602FF094FD3060280010F0D6FD2000EFE744
S315817024702F03748130B5CE46040000B509481EF02D
S31581702480D3FD00280BD0220010212FF05EFD002392
S31581702490984200DA163B180020BCA94630BD02234B
S315817024A05B42F8E7F6AD738130B5CE4600B505006F
S315817024B086B0142905D813482FF0B0FC1C204042F1
S315817024C019E030F07EFF104B04AC22000100180039
S315817024D031F01CF9002812D06079637822780390E4
S315817024E020790290E0780190A078009007492800C1
S315817024F02FF072FC012006B020BCA94630BD0220A7
S31581702500DDE7C04609E67381546C748129E673816F
S31581702510F0B5B84CCE4600B50025A544B64B0C0037
S31581702520192229000C9020A8139314951595169548
S3158170253017951F9533F000F82900402228A8279512
S3158170254032F0FAFF2000FFF7FBFD636B01352563DF
S31581702550002B25D0A36B002B06DA00208E231B015E
S315817025609D4480BCB946F0BDA4481EF05DFD051E34
S31581702570F3D0A06900280AD08022FFA9E431D20065
S315817025800DF00AF9FFA99E48E4311EF06DFC280012
S315817025902EF0B2FC00220100280011F02BFEDCE740
S315817025A021699848002907D0974E0C983200FFF719
S315817025B02FFE002805DA954861682FF02FFC0120DF
S315817025C0CCE730001EF0B0FC636908930790002B4E
S315817025D01BD02EF091FC060060692EF08DFC3618AA
S315817025E00136300010F0CAFD0890002803D1884862
S315817025F02FF014FCE3E763690093864A079B08987A
S3158170260031002FF0D4FB089B0793E169002968D1CB
S31581702610E3690993002B6CD1E36ADB0716D57E4893
S315817026201EF082FC05007D481EF07EFC06007C480B
S315817026301EF07AFC07007B481EF076FC7A493300DF
S315817026402A000097019027A82FF0C6FBE36A9B07A3
S315817026500CD51FAD754928002EF0F4FB152121A8E4
S31581702660FFF722FF002801DA00232B70E36AA56940
S315817026709B0702D1002D00D184E0FF2200219200B8
S3158170268039A8389132F058FF002D00D1684D280055
S315817026902EF032FC050027A82EF02EFC2D181FA8CF
S315817026A02EF02AFC01358022A169D2002D1895421F
S315817026B04AD9081E00D15E482EF01EFC050027A857
S315817026C02EF01AFC06001FA82EF016FC594C80229B
S315817026D0D200009229003200030020002FF09EFB69
S315817026E02EE0E0682EF0E0FB002891D1079B0993DC
S315817026F092E7514EFFAB09990C98E4333200FFF79C
S3158170270087FD002804DA4D4861682FF087FB17E052
S31581702710FFABE4331D6828002FF0A8FB010010A8D9
S315817027202EF090FB30001EF0FFFB454A1C21009570
S315817027300300099018A82FF03AFB1B2800D86BE785
S31581702740089810F069FC3AE7002902D038A82EF073
S3158170275080FB27A938A82EF086FB1FA938A82EF0F2
S3158170276082FB8022FFA9D200E43138A80DF014F8DB
S31581702770FFA9E43122481EF077FBFFA93148E43185
S315817027802FF04CFB30481EF0CFFB216A1690002942
S3158170279005D0E0682EF088FB079B00280AD0169B2F
S315817027A0002B08D0256A0027BD4200D0B5E0636A48
S315817027B0BB424DD11693079B1493099B0224002B20
S315817027C002D018AB01341593169B002B03D11F4889
S315817027D01EF0AAFB1690079800F0F0FF169B050075
S315817027E0002B00D11AE1159B002B00D12FE1042417
S315817027F020E1C04620F7FFFF3890738138F47381EA
S31581702800B4AF738141F473815FF473816DF47381B5
S3158170281098F4738133E97381F4F47381FBF4738172
S3158170282004F573810EF5738116F5738126F57381BF
S315817028309F7374812FF57381B3F47381C2F473813D
S31581702840EDF4738155F5738161F5738191F67381B9
S3158170285083481EF069FB061E4DD182481EF064FBCB
S31581702860060081481EF060FB804B0A930B90002E08
S3158170287002D17F4B0A931E007E4B0D930B9B002BCF
S3158170288002D17B4B0B930A93606A2EF035FB7A4AA1
S315817028900E92031E09D0606A784AC018013803788F
S315817028A00E922F2B01D1724B0E93606A2EF024FB00
S315817028B005000E982EF020FB2D1830002EF01CFB93
S315817028C0013507000A982EF017FBED190F900B98BA
S315817028D02EF012FB0F9B5D1907000D982EF00CFBE5
S315817028E07F193F18380010F049FC051E06D16448DF
S315817028F02FF094FA24E75E4B0D93C3E70D9B0493F7
S315817029000B9B03930A9B02930E9B3900019600934E
S315817029105C4A636A2FF04BFA2F005B4E29000C9844
S3158170292000233200FFF774FC0500380010F074FB49
S31581702930002D0CDA00231693236A002B01D053489D
S31581702940E2E6616A002902D051482FF067FAA46ADB
S31581702950002C00D12FE730001EF0E6FA00212FF00F
S31581702960EAFA060023F098FD051E00D023E7494850
S315817029701EF0DAFA002803D147482FF04FFA1AE78A
S3158170298029002FF0D8FA0B902378202B30D0434929
S3158170299020002EF04CFB25000A9000280AD0071BD8
S315817029A0781C10F0EBFB3A00210005002EF051FAED
S315817029B00023EB5528002EF09FFA00280BD0354A5C
S315817029C00C9800232900FFF723FC002812DA34487B
S315817029D029002FF023FA0A9B002B02D0280010F0D1
S315817029E01BFB20002D492EF022FB041ECCD1E2E682
S315817029F00134C9E780218901300003F0CFF90B9842
S31581702A0023F04AFD002801D02648E1E70B99300072
S31581702A1003F03AFA0028DED02348D9E700F0DCFECD
S31581702A20022803D021481EF07FFA1690169B002B40
S31581702A3000D0D8E6280000F0CFFE13AB2200011E2D
S31581702A4008D00C980021006805F06CFC78E6074B7D
S31581702A501593CCE60C98006806F024F970E6C046AA
S31581702A60C9F973816CF573812962748133F47381C9
S31581702A709F737481C4F9738135F4738105B47381DD
S31581702A8070F573818CF5738161F5738199F57381B5
S31581702A90C1F57381F0F5738102F673813C7174812E
S31581702AA032F673814DF673816BF673819AF6738103
S31581702AB010B5CE4600B583B001AB1400FFF750FB5D
S31581702AC0002803DB019B002201201A5503B010BC3C
S31581702AD0A14610BDF0B5CE4600B50E0086B0039303
S31581702AE007000B68300005A915000293FFF77AFC81
S31581702AF0041E0BDA029B31681048C91A1A002FF02E
S31581702B008DF9200006B080BCB946F0BD059E2A00BD
S31581702B1031003800FFF7CCFF041E04DA3100084813
S31581702B202FF07CF9EDE70C9B00932A00039B29001B
S31581702B30380000F007F80400E3E7C04675EA738150
S31581702B4092EA7381F0B5CE4600B590B01E00169BA1
S31581702B500390069107910492102B00DC25E1B84809
S31581702B6010212FF05BF91F246442200010B080BCC5
S31581702B70B946F0BD0127069837612EF0BDF93A0046
S31581702B800EA9079D040007A8FFF7CCFB0F9B0E2BA0
S31581702B900BD0142B1CD03100042B1BD00799A9485C
S31581702BA0491B2A002FF03AF90EE00323221D9A431E
S31581702BB0049B0398D218169B07A90133009333009F
S31581702BC0FFF788FF041ED0DB07A8FFF7AFFAECE0AA
S31581702BD03100083107A8FFF705FCF3E731000C31A6
S31581702BE007A8FFF71FFC04000BE14820079C10F033
S31581702BF0C5FA051E01D10C24B6E70021482232F0B0
S31581702C009BFC291D07A8FFF7EDFB00280ADA0799B7
S31581702C102200091B8C482FF001F92800FFF719FB58
S31581702C201624A1E7B2692B00310040331431B361A8
S31581702C3029646A64136007A801220CA9079CFFF7AF
S31581702C4071FB0D98152800D9AEE032F0FDFBF4FFCB
S31581702C50AD00AD001600AD00AD00AD003B003B0090
S31581702C6058007F009F00AD00AD00AD008A009100D5
S31581702C709800AD00A700AD00AA0001220EA907A891
S31581702C80079CFFF74FFB0F9B062B0ED00C2B12D197
S31581702C907368002B05D168682EF069F97060002819
S31581702CA0A9D007A8FFF742FAC5E72900083107A816
S31581702CB0FFF798FBF5E707992200091B61482FF00A
S31581702CC0ADF8EEE72900103107A8FFF78BFB041EDC
S31581702CD000DA4AE728692EF04AF9E86000288AD036
S31581702CE05A4928692EF0A3F9041EA4D02EF03FF913
S31581702CF06861002800D17EE7002323709BE7290055
S31581702D00183107A8FFF76EFBEB6905930400002B5A
S31581702D1018D14F49A8692EF08AF9071E12D0073744
S31581702D20202138002EF0DCF8C31B581C029310F05A
S31581702D3025FA029A3900E8612EF08BF8EB69029ACE
S31581702D4005999954002C00DB75E70EE7EB69002B2A
S31581702D5000D070E729001C3107A8FFF743FB0400F8
S31581702D60F0E72B6A002B00D065E729002031F3E765
S31581702D706B6A002B00D05EE729002431ECE7AB6AE1
S31581702D80002B00D057E729002831E5E72900012378
S31581702D9038316B6307A8FFF745FBE0E729002C31D3
S31581702DA0F8E70123EB6346E7079407A801220AA98E
S31581702DB0079CFFF7B7FA0B9812284BD832F044FB71
S31581702DC0F5FF4A004F00DAFE4A000EFF15FF4A00F2
S31581702DD04A004A004A004A001300350024004A001E
S31581702DE04A004A00130009A907A8FFF7FBFA099D53
S31581702DF00400002D05D07068002801D010F00CF900
S31581702E007560002CD1DAB0E606982EF075F803233A
S31581702E1007A9C21C9A43049B0398D218169B013347
S31581702E2000933300FFF756FEDDE63100103107A8B7
S31581702E30FFF7F8FA041EB8DA07A8FFF777F994E670
S31581702E4046037481650374818C037481E5A57381EE
S31581702E50A703748107990348091B2200A2E60124FE
S31581702E6083E6C046AF037481F0B5164C164FCE46D5
S31581702E7000B50600A54438000C0015002EF03CF80C
S31581702E80019020002EF038F8019BC01880239B009A
S31581702E9098420CD90D48220039002EF0BFFF2420AC
S31581702EA0404284239B009D4480BCB946F0BD22007C
S31581702EB0074903A82EF090FF2A0003A93000FFF777
S31581702EC0F7FDEEE7F0FDFFFF74E8738182E87381A9
S31581702ED0A2E8738130B5CE46040000B5006810F063
S31581702EE09BF8606810F098F8606905682300143360
S31581702EF0984205D1200010F08FF820BCA94630BDCC
S31581702F004038FFF7A6F928002D68EFE770B5CE46F1
S31581702F1000B5060083B01C200D0010F02FF9041E39
S31581702F2015D01C22002132F007FB23001433636114
S31581702F30A361012300932A00230029003000FFF743
S31581702F4001FE002803DA2000FFF7C4FF0024200069
S31581702F5003B040BCB14670BDF0B5CE4600B58CB0FD
S31581702F600890C8680C0009300A2132F085FA00276A
S31581702F70414B0093029701973B00226901002068BB
S31581702F800FF0CAFC0500B84253D03C481DF0CCFF07
S31581702F906669012207970697059027001437BE4206
S31581702FA035D1059B002B06D0079B002B5DD134480C
S31581702FB005992EF033FF069B002B0BD006992800BE
S31581702FC00FF0AEFB012805D002302FD12D486168F4
S31581702FD02EF024FF0BA928000FF0C6FB06002800EF
S31581702FE00FF0C5FC012E43D10B990898FFF790FA23
S31581702FF000281ED06469A7421BD0210040390B6B13
S31581703000002B02D10898FFF783FA2468F3E737001B
S31581703010403F531C1C49380009932EF0DDFE3A005F
S31581703020390028000FF038FC012806D028000FF0EF
S315817030309EFC0CB080BCB946F0BD6168002905D094
S3158170304078682DF031FF002800D10697059B002BFB
S3158170305008D019003300403B58682DF025FF0028B1
S3158170306000D107973668099A97E7079B0693A5E774
S315817030700236DED1BEE7C04641217081A8EA7381EE
S31581703080BBEA7381DBEA73817E097481F0B5CE46C2
S3158170309000B584B002930AAB1B780E00019203933C
S315817030A01C220CAB002104001F780B9D32F044FA70
S315817030B0019B6360029BA360039B266023732776C3
S315817030C0002D16D028002DF017FF80239B00984283
S315817030D01AD228002DF04BFF2061002817D0002DC1
S315817030E009D1002322690020D05404B080BCB9462E
S315817030F0F0BD0848EEE72F2128002DF01DFF00282E
S31581703100EFD0431B0133EDE71C204042EDE70C20E5
S31581703110FBE7C0469F7374814B4608B500690FF013
S315817031207BFF08BC994600BDF0B5CE4600B505005B
S315817031301600FFF7EBFE041E06D10A482EF06EFECE
S31581703140012080BCB946F0BD002E01D001230361F8
S3158170315021002800FFF700FF2000FFF7BBFE00204B
S31581703160EFE7C046920B748110B5CE4600B591B02B
S3158170317004000100402268462DF03AFF694600201E
S31581703180402201902CF004FE6268FF24110E130612
S315817031900B432404110221400B43FF210902120AB9
S315817031A00A401343181A4342584111B010BCA146C4
S315817031B010BDF0B5CE4600B5C16806000A06080E88
S315817031C0FF252D040243FF24080228402402090AA0
S315817031D0214002430A438023310040315B02002043
S315817031E02CF0DCFDB269110E13060B4311022940D6
S315817031F0120A0B4322401343181A4342584180BC2A
S31581703200B946F0BD002340309A008258002A01D118
S31581703210180070470133F7E7F0B5CE4600B582B036
S3158170322006000C001D000192FFF7ECFF0090A04292
S3158170323037D930004030A3001B58FF26190E1A0665
S315817032400A4336041902FF2731401B0A3F020A439B
S315817032503B401A4300212A600D00A5420AD1009B8A
S3158170326001339B001B185B18019A136002B080BCF6
S31581703270B946F0BDAB00C258013513069C46664609
S31581703280130E1E43B446FF26130236043340120AC8
S3158170329066463A4033431343033303229343C91833
S315817032A0DBE700232B60DFE70368002B01DA002060
S315817032B070478B42FCD00C30F6E730B5CE460C00A9
S315817032C000B51100FFF7F0FF002800D08468200058
S315817032D020BCA94630BD00004B4608B5044B0200A0
S315817032E004491800FFF7E9FF08BC994600BDC0463E
S315817032F0606E7381CEE773814B4608B5044B0200CD
S3158170330004491800FFF7D9FF08BC994600BDC0462D
S31581703310BC6C7381A5E773814B4608B5044B02007B
S3158170332004491800FFF7C9FF08BC994600BDC0461D
S31581703330446F7381D9E77381F0B5CE4600B50A9F24
S3158170334004001806000E396016000D00FFF7E4FFC1
S315817033500200002C17D11E49AE4200D01D491E486D
S315817033602EF05CFD1D4829002EF058FD002C0FD0E3
S31581703370012C1ED01A4821002EF050FD2620404285
S3158170338080BCB946F0BD110016482EF047FDE9E7BD
S31581703390AE4209D0089A099B934215D38023079927
S315817033A006985B0200F0BAF9089B20005B193B60B6
S315817033B0E6E708AB079A099906982BF0C5FA0300D8
S315817033C02633D7D00400EFE71C246442ECE7C0466D
S315817033D0A6EC7381AAEC7381B2EC738160117481EE
S315817033E0CFEC7381BBEC73814B4608B5044B0200FD
S315817033F004491800FFF761FF08BC994600BDC046B5
S31581703400006E7381BAE77381F0B5514DCE46030074
S3158170341000B5040086B02033202229004D482EF055
S31581703420FDFC29004C482EF0F9FC207FFFF754FFF4
S315817034300600607FFFF760FF0390A07FFFF76CFF48
S315817034400700E07FFFF7D0FF32000399FF2636022F
S315817034500300009341483B002EF0E0FC2900404870
S315817034602EF0DCFCE368FF271A0E18063F04104322
S315817034701A023A401B0A10433340184300F0F4FB9A
S3158170348023693848190E1A060A43190239401B0AEC
S3158170349033400A431A4329002EF0C0FC63693248CF
S315817034A0190E1A060A43190239401B0A33400A4318
S315817034B01A4329002EF0B2FCA37F02221900914390
S315817034C0042928D12000FFF79DFE290000260700D8
S315817034D026482EF0A3FCBE4203D106B080BCB94605
S315817034E0F0BD05AB04AA31002000FFF795FE3200CE
S315817034F029001F482EF092FC059800F0B5FBA37F3A
S31581703500062B06D1002E04D01A48049A29002EF073
S3158170351085FC0136DFE7202BDFD1E1682369080E50
S315817035200A06024308023840090A314002430A43B7
S315817035301149180E521819060143180238401B0A90
S3158170354001433340194340390C482EF067FCC4E778
S31581703550A5E573810EEF738124EF738135EF7381E6
S3158170356044EF738155EF73816BEF738181EF738153
S315817035708EEF73819EEF738100E0FFFFB6EF7381EB
S3158170358030B5CE460400150000B52368002B02DAEB
S315817035900120404208E06068002808D029002DF09B
S315817035A04BFC002803D1206820BCA94630BD0C3461
S315817035B0EBE700004B4608B5044B0200044918003E
S315817035C0FFF7DEFF08BC994600BDC046606E738109
S315817035D04D1E74814B4608B5044B02000449180090
S315817035E0FFF7CEFF08BC994600BDC046BC6C73819F
S315817035F0382174814B4608B5044B02000449180082
S31581703600FFF7BEFF08BC994600BDC046446F738103
S315817036104E1D74814B4608B5044B0200044918004F
S31581703620FFF7AEFF08BC994600BDC046006E738138
S31581703630C2E773814B4608B5044B020004491800F2
S31581703640FFF79EFF08BC994600BDC046146F738113
S31581703650971874814B4608B502239A430800111E48
S3158170366003D12EF068FC034B1860002008BC994684
S3158170367000BDC046547974814B4608B507481DF024
S3158170368053FC002806D0102200212EF0B1FC08BC14
S31581703690994600BD80200006F9E7C0467FCB7381CD
S315817036A030B5CE4600B511481DF03EFC002806D0D7
S315817036B0102200212EF09CFC20BCA94630BD4B46C1
S315817036C05C6B1D6C9A6B6119914201D99D6B2D1B37
S315817036D007481DF029FC2300002804D01022002100
S315817036E02EF086FC03006419E01AE5E797CB7381A7
S315817036F07FCB73814B4608B507481DF015FC0028B2
S3158170370006D0102200212EF073FC08BC994600BDAC
S31581703710FFF7C6FFF9E7C04689CB7381F0B5CE4610
S3158170372000B582B004000D0017000193884204D061
S3158170373001D98D188418002F03D102B080BCB94687
S31581703740F0BD019B3E009F4200D91E0010F058FAD1
S31581703750AC4201D9A41BAD1B3200290020002DF08B
S3158170376047FCAC4201D2A419AD19BF1BE3E7000037
S3158170377070B5114ECE4600B5040083B030680B002B
S315817037801500002C13D0010001AA200002F0B6FFAB
S3158170379000280BD131682B0001AA200002F0D0FFDE
S315817037A0011E03D120002EF0C6FB0190019803B053
S315817037B040BCB14670BDC046547974814B4608B5DC
S315817037C082B0002301AA694600930193FFF7D0FF67
S315817037D002B008BC994600BD30B5CE4600B50368C7
S315817037E0FF24190E1A060A432404190221400A433A
S315817037F0FF2109021B0A0B400649134301228B42A2
S3158170380004D022F049FE434258414200100020BC48
S31581703810A94630BD56190527806C431E984170475D
S31581703820F0B5CE4600B58EB00792149A1E0000236D
S31581703830336005000C001360984200D1E2E07D4947
S315817038402DF032FB002803D100230A93099386E079
S315817038500023A26C0D930B920C939D4200D1B0E024
S31581703860236D002B17D0E76C0BAB0DAA390028009E
S3158170387002F044FF002800D0ADE039000CAB0DAAF0
S31581703880280002F05DFF011E00D0A4E028002EF012
S3158170389052FB0D909FE0684B1F68E5E70D9967486D
S315817038A02EF0BCFA0D9DFF202B680004190E1A06A6
S315817038B00A43190201400A43FF211B0A09020B4080
S315817038C013435F4ABC3424685E48934205D128000D
S315817038D0FFF74AFC002804D15B480FF0C4F8022038
S315817038E065E02800FFF790FD002C0CD057480FF04B
S315817038F0BAF82800FFF75DFC002801D15448ECE73F
S3158170390054480FF0B0F8079B18062B7F000E052BD5
S3158170391009D16B7F984203D0022B04D1162802D12C
S31581703920AB7F032B07D0FFF7E7FC4B4B01001800E9
S315817039302EF074FAD3E7002DD1D02B004033099342
S31581703940EB68FF20190E1A060A430004190201401A
S315817039500A43FF211B0A09020B4013430A93099AF2
S31581703960002A2CD00A9B32609B18149A136026E029
S315817039700AAB059309AB049378230293753B019344
S31581703980079B03901B061B0E00930D990BAB0CAA1C
S31581703990200003F037FE00280EDB0D9BA3650C9B80
S315817039A0E3652066DBE72D480FF05DF8162040420F
S315817039B00EB080BCB946F0BD03004133F8D100200A
S315817039C0F6E7E26C264920000D9203F001FE831C16
S315817039D0F5D00028F0DB0D98FFF7FEFE012800D1A7
S315817039E05CE70228C4D0002DDDD03A2128002DF065
S315817039F077FA0028D7D0013000212EF09CFA0D9BE2
S31581703A000A9023E78B6C002B00D021E7636C002B27
S31581703A1000D119E7E31CDB7F042B00D014E7216802
S31581703A2010482EF0FBF920680AAB09AA0121FFF72D
S31581703A30F3FB94E733F4738154797481AE86738121
S31581703A40561905272DED738142ED738177907381B8
S31581703A505AED738192907381E68673810187738142
S31581703A608E1A74811D877381F0B5CE4600B50400B8
S31581703A7082B029480D0016001F001DF055FA0028E6
S31581703A800CD000212EF057FA0300421C0DD1002D67
S31581703A9021D1089B00203860186018E0FFF72AFE54
S31581703AA00190FFF7E9FD019B1B18002DF1D0802253
S31581703AB0520131002000002B18D02CF087FC386021
S31581703AC0002816D115480EF0CEFF0120404202B073
S31581703AD080BCB946F0BD089AAB193D602900136068
S31581703AE0200032002CF0DCFB0020F0E72CF082FC09
S31581703AF0E5E7089B32181A60396809482EF08EF905
S31581703B00802338685B0232002900FFF707FE05487B
S31581703B100EF0A9FFE8E7C0462788738133887381E1
S31581703B204F8873819290738190B5CE4600B503F0BC
S31581703B308FFF80BCB94690BDF0B5CE4600B5836C1B
S31581703B4092B00500002B04D1002012B080BCB9461A
S31581703B50F0BDC66C3000FFF73FFE0790022852D148
S31581703B60A96C300003F0A6FC00230C900893002703
S31581703B70274A089B0C993000009723F09CFB119083
S31581703B80B842E1D010AB05930FAB0493079B0393B7
S31581703B90A02302938A3B0193079B00932B004833A2
S31581703BA011AA3100280003F02DFD0028CDDB119973
S31581703BB0300002F0FBFD0028C7DB1B2408ABE4183C
S31581703BC001002200300002F03DFE0028BDDB237823
S31581703BD009930F9B0A93109B0B930E4C0E4B1B1BD9
S31581703BE0DB100D930D9BBB4202D1089B0133BDE760
S31581703BF02368099A934203D163680B990A98984707
S31581703C0001370834EEE705482EF008F901209CE764
S31581703C1070867381CC9D7481CC9D74817A86738113
S31581703C2070B5030006000500CE46C436A035A433B0
S31581703C3000B5040083B01B6829683000019302F0D7
S31581703C40C3F901AA2900300002F04CFA002807D185
S31581703C50019B002B04D029683200200002F060FCA1
S31581703C6003B040BCB14670BD30B5CE46040000B5D8
S31581703C70210005482EF0D2F8044A200000212BF04D
S31581703C80DDFE20BCA94630BDE7E77381F4037481FC
S31581703C90F0B5CE4600B5040084B0664816001F00A4
S31581703CA01DF0E6F901902000FFF796FD05000128C9
S31581703CB007D0022850D0604801250EF0D4FE6D429F
S31581703CC019E02368FF20190E1A060A4300041902A7
S31581703CD001400A43FF211B0A09020B401343574ACD
S31581703CE05748934205D12000FFF73EFA002807D145
S31581703CF054480EF0B8FE280004B080BCB946F0BDB9
S31581703D00019B002B06D02000FFF753FA002801D1C2
S31581703D104D48EEE7A37F4D48062BEAD1226C2100F0
S31581703D20100E1306FF24034324041002204003431C
S31581703D30FF200002120A0240403145481343D8D011
S31581703D400431081F00680A000028F9D10A990025F4
S31581703D500A600B9A1360CEE701214942200003F075
S31581703D606BFB002803D03B480EF07DFE10E0002EE1
S31581703D705CD1002F0ED03B78002B0BD03900200000
S31581703D8003F098FB011E15DA334839002EF046F898
S31581703D900125B0E70021200003F08CFB011E09DAB2
S31581703DA0002FF1D12D49200023F051F9011E0CDA33
S31581703DB02B48D9E72B4A0023200003F0D1FB051E3F
S31581703DC013DA002FEED02848DFE7284A0023200037
S31581703DD023F087F8061EEBD03100200002F0E6FC56
S31581703DE0051E02DA22483100D0E70622290020001A
S31581703DF003F0F6FA002801D11E48B5E7019B002B26
S31581703E0007D02900200003F059FA002801D11A48F9
S31581703E10AAE703AB02AA2900200002F0FDFD002863
S31581703E2001D01648A0E7029A039B8FE73378002B5F
S31581703E30B8D0D1E73E907381E5EE73815619052727
S31581703E40C2ED7381D4ED7381E4ED7381F2ED73818B
S31581703E5002EE738110EE738126EE73815DEE73814E
S31581703E6065EE7381F028748140EE73818817748151
S31581703E7080EE73819EEE7381B1EE7381C0EE738134
S31581703E804B4608B514F08CFE00604060002008BC7B
S31581703E90994600BDF0B5CE4600B5070040680E0064
S31581703EA02DF02AF8050030002DF026F8854208DDC0
S31581703EB079682C1A091930002CF0F6FF002800D188
S31581703EC02500280080BCB946F0BD0000F0B5CE460D
S31581703ED000B5040082B040680E00170015F0BBFA79
S31581703EE001A800F0D3FF051E17D1019BDB6AF34051
S31581703EF0DB0712D4002F07D0606815F0ACFA0E4B31
S31581703F00010018002DF08AFFE368002B0AD1019910
S31581703F100122CB6AB2401343CB62280002B080BCC7
S31581703F20B946F0BD3900200098470222831C93431D
S31581703F30EDD00500F1E7C046AF89738170B5CE4685
S31581703F4000B583B0060001A800F0A0FF051E1BD145
S31581703F5068200FF013F9041E1BD06822310031F0EE
S31581703F6043FA019B2200996908329A611433A360DE
S31581703F70E1600A603069002806D014F011FE43684A
S31581703F804460206063601C60280003B040BCB14609
S31581703F9070BD0C256D42F7E770B5CE460E0012499D
S31581703FA000B58DB0009204000A001D001E21436881
S31581703FB004A82DF0FCFE04A82CF0D9FF021E10D0A7
S31581703FC0200003AB310015F004F8041E04D1039868
S31581703FD014F0B7FE039B2B6020000DB040BCB14638
S31581703FE070BD0C246442F7E784897381F0B5CE463F
S31581703FF000B50700B6B0186A15001C00029114F05E
S31581704000CFFD43680298039314F0CAFDAB6806002E
S315817040101D2B00DD76E0029B6361AB68002B3ED081
S315817040203A4A142104A82DF0C2FE04AB0093384A93
S315817040307B683C2109A82DF0BAFE09A82CF097FF60
S315817040406062002860D0AB68206A2900A36100F0A5
S3158170405061FD00281FD1039B02273B40A96818AADE
S3158170406030001F0011F04CFBAB68002B1CD1831CF8
S315817040701AD10123A3621E232B612B68DB0206D41E
S31581704080AB68002B24D1300011F0A4FD6861206AE1
S31581704090210000F04CFD36B080BCB946F0BD1D499B
S315817040A004A82CF0CFFEC0E703005F330DD0012347
S315817040B0A3620028DFD0002FDDD1AB68012BEAD156
S315817040C0023302202B614042E5E76C204042F2E7E1
S315817040D0002FDCD16A69002A07DB04D02B9B002B69
S315817040E003D11620EFE7012BFBD1A16930001DF0BA
S315817040F065FF0223A3620028CDD1029B63610323EE
S31581704100A362C4E76C20DEE70C20DCE78F897381BC
S31581704110848973819789738130B5CE4600B582B0B3
S315817041200D0001AA1921040014F0A9FD002808D0F8
S315817041300300133305D1054A01AB29002000FFF72F
S315817041402BFF02B020BCA94630BDC0469E897381C3
S3158170415070B5CE4600B50D0091B019490400FFF7D0
S3158170416099FE184901916168174A009132210300BD
S3158170417003A82DF01CFE200014F0D6FD02AA03A917
S31581704180060014F0BFFD041E11D0030013330ED147
S3158170419003A82CF0ECFE021E0ED002AB2900300073
S315817041A014F017FF041E02D1029814F0CAFD200084
S315817041B011B040BCB14670BD0C246442F7E7C0466D
S315817041C0AA8973819E897381128A7381F0B5CE466D
S315817041D000B590B005000C0014F0A6FD060028000D
S315817041E014F0ABFD192826D114492800FFF752FE29
S315817041F0696802AB07000200300014F059FD00288F
S315817042000ED06B680E4A3221009303A83B002DF0C5
S31581704210CEFD02AA03A9300014F074FD002806D1E0
S31581704220029814F03FFC002801D1029B236010B0E4
S3158170423080BCB946F0BD16204042F8E79D897381EE
S31581704240A6897381F0B5CE4600B598B00591039273
S3158170425000210BAA05002DF025FF0B9B5E1B02909A
S31581704260AB4200D17FE03100280015F007F90400D8
S31581704270431C15D13D48320029002CF021FE0028BF
S315817042806BD032003A4829002CF01AFE0126293467
S3158170429000280AD0883C200018B080BCB946F0BD91
S315817042A07D285DD00028F6DB002607A9200015F051
S315817042B04AF8002802D002246442ECE7079B9D6885
S315817042C0079B2C3D2A0008332C329A42F3D0029BED
S315817042D0013305D0AB6C029A934201D0ED6AEFE758
S315817042E008AA1921280014F0CAFC002827D002993F
S315817042F009AA200013F0A0FB0028EFD1099F38008E
S3158170430014F012FD0490380014F017FD1628E5D1CB
S3158170431018493800FFF7BEFD174901917968174A28
S315817043200091322103000BA82DF041FD04980AAA51
S315817043300BA914F0E7FC0028D0D10A9B0893059A43
S31581704340089B1360029B013301D108231E43039B93
S31581704350002B00D01E6000249DE702262824A4E746
S3158170436000264224A1E71624A6E7C046D22074818E
S315817043708A897381AA8973819E897381128A73816D
S31581704380F0B5CE4600B503681600DF6BCA6882B099
S3158170439004000D000100300000F017FB3B68002B14
S315817043A015D101A92000FFF711FF03005F330BD0F0
S315817043B0002805D1019933002A002000FFF716FEE7
S315817043C002B080BCB946F0BD6C204042F8E732003D
S315817043D0290020009847F3E730B5CE4600B514F032
S315817043E0DFFB04002068844202D120BCA94630BD1F
S315817043F000F01BFBF6E74B4608B5FFF7EDFF002093
S3158170440008BC994600BD0000F0B5274B274CCE46B7
S315817044101B1B00B51B1186B0051E0391029310D02C
S3158170442005AA00212DF03EFE059B5B1B00273E00F1
S315817044300093029BB34207DC380006B080BCB94654
S31581704440F0BD01235B42F1E7606815F004F80190D5
S31581704450002D0AD1039A31002000FFF737FD00281D
S3158170446000D0070001361034E3E701982CF044FD43
S31581704470009B0200984200D21A00019928002CF004
S315817044801FFD0028E6D06368282BEBD108482900E8
S315817044902CF00AFD0028DDD0064829002CF004FD99
S315817044A00028D7D0DEE7C046C88B7481A88B74810B
S315817044B08A897381D2207481F0B5CE460D0000B59C
S315817044C0002104001600FFF79FFF002804D13200F7
S315817044D029002000FFF7B6FE80BCB946F0BD00000A
S315817044E0F0B5CE4600B5002382B004000E001700E9
S315817044F00193019B002B27D1A36E626E0133A36654
S315817045009B009D58002D05D11320404202B080BC7E
S31581704510B946F0BD3A0001A92800FFF7CDFF23689F
S3158170452002221342E5D00300603304D10848290082
S315817045302DF074FCDDE70230DBD128002DF0E3FD30
S315817045400028D6D10348F2E700203360DEE7C04603
S31581704550C1897381DF897381F0B5124BCE4600268E
S31581704560114C1B1B00B51B1182B00F0035000190D9
S315817045700093009BAB4204DC300002B080BCB9462C
S31581704580F0BD2368019A934209D13A00290020002F
S31581704590FFF79CFC0222831C934300D006000135F1
S315817045A01034E6E7C88B7481A88B7481F0B5CE46DA
S315817045B000B500250B6882B006000F0001930D606F
S315817045C0019B002B24D101A9192014F0C7FF0198F2
S315817045D0002805D014F0E4FAB36F82689A4217D135
S315817045E00198002818D1B06F0130B06708281FD0A4
S315817045F031680823194215D0073B49081940FFF7DE
S31581704600ABFF041E0ED0200002B080BCB946F0BD4F
S3158170461001A814F0BAFFDAE714F044FA019B041E7C
S3158170462009D11D00019B002BCAD000243B60EAE7AB
S3158170463013246442E7E7596804482DF0EFFB019B28
S31581704640AB42E0D000220192EBE7C046F5897381D7
S31581704650F0B5CE4600B590B000260193036804008C
S315817046600D00039206960293B1422CD03A2128000E
S315817046702CF036FCB04226D0431C471B00937B1C22
S31581704680202B06D9354829002DF0C8FB16256D4299
S3158170469022E03A00290008A830F0A6FE102204AB69
S315817046A09B18009807AA3100DE552DF04EFC002824
S315817046B002D02B480099E7E7226880235B03134376
S315817046C02360079BA36005A91B2015F043F9051E7E
S315817046D007D024482DF0A2FB280010B080BCB946C3
S315817046E0F0BD23681B070CD404ABDE1C0598310022
S315817046F000F09CFB337805006066002B0AD10C258F
S31581704700C5E7029B012059080140FFF725FF051E69
S31581704710EAD0E1E7002818D001235B4207AA06A9EF
S315817047202000A366FFF7DCFE069C002C13D02000C8
S3158170473014F0B8F9051ECFD1019B002B02D0019AD6
S31581704740079B1360039B1C60C6E706A92000FFF7D1
S315817047502DFF0795E8E7022599E7C0461A8A738186
S31581704760368A7381548A7381030030B58033CE461D
S3158170477000B51B7804000D00002B0ED0C06814F0B4
S315817047800FFA22000023083263602900D367E0683C
S3158170479000F0FCF920BCA94630BD0A0001004068D2
S315817047A0FFF7EEFDF6E730B5CE460D0000B58822EF
S315817047B00021040030F0C0FE01235B426367113330
S315817047C02560236220BCA94630BD4B4608B5C06FB3
S315817047D00EF022FC08BC994600BDF0B5CE46802607
S315817047E000B5040084B00D007603A2692000803084
S315817047F013000178133315D013006C3315D1012151
S3158170480020680300334030420CD12367E36F1B6805
S31581704810E3606C322ED10023A360236180235B0217
S3158170482018422ED01320404219E0236FE76E013370
S315817048302367BB4217DAE26F9B009B58E3602900BE
S315817048402000FFF791FF002809D00300A0616C3327
S31581704850CBD003002633C8D023685B07C5D504B097
S3158170486080BCB946F0BD0029C9D0636F0021E3666B
S315817048700170C5E7A36822690133A3609342CADCDC
S31581704880DDE76368029300290ED103AB02AA20008B
S31581704890FFF7DEFE002835D0E06814F081F9002339
S315817048A063600834E367BDE7676E002F24D022000A
S315817048B00832D16F08220800104011421AD0039332
S315817048C0986914F03AFA070003A814F05EFE039B08
S315817048D0002B09D1039B0293002B13D103AA02A942
S315817048E02000FFF7FDFDD5E7986914F026FA874217
S315817048F0EAD1EFE70290F1E702A92000FFF756FEB1
S315817049000397C7E7029814F0CDF8002800D089E79D
S31581704910039BE068029F019314F042F92300019A88
S3158170492008336760DA678AE770B5CE4600B50E00E0
S3158170493083B014001D00002801D1002902D0802384
S315817049409B021D4329002000FFF72DFF6D0C01216D
S31581704950A943200000F033F9002812D1236FE26F4A
S315817049609B009B58E360230080331B78002B14D106
S3158170497000936A4601AB31002000FFF769FE00287B
S3158170498002D0132040421CE0E068009E019D14F025
S3158170499007F9230008336660DD6708992000FFF701
S315817049A0E3FE00280DD003006C3305D00300263357
S315817049B002D023685B0704D4A06108992000FFF7B1
S315817049C00CFF03B040BCB14670BDF0B5CE4600B5A4
S315817049D00E00150000216822040030F0ADFD002321
S315817049E026612562A36280BCB946F0BD30B5CE46DC
S315817049F0040000B5406A0EF00FFBE06A0EF00CFB06
S31581704A00206B0EF009FBA36D9B0702D4E06B0EF051
S31581704A1003FBA06C0EF000FBE06C0EF0FDFA606E8D
S31581704A200EF0FAFA20BCA94630BD30B5CE4600B537
S31581704A3003690400002B06D04368026853601A60CC
S31581704A40002303604360E368A268200053601A60A4
S31581704A500023A360E360FFF7C9FF20000EF0DCFA44
S31581704A6020BCA94630BD4B4608B5836A0100052B2B
S31581704A7006D1006A00F069F8002803D10E2000E0A3
S31581704A804720404208BC994600BD000030B5CE46ED
S31581704A9000B50B6A0C005A68496A07482DF0BEF951
S31581704AA02000FFF7E0FF0400210004482DF0B6F9DD
S31581704AB0200020BCA94630BD928A7381B48A7381E5
S31581704AC04B4608B5406814F02FF914F036F928284A
S31581704AD00AD01B2808D0603843425841034B404264
S31581704AE0184008BC994600BD0048FAE7F4FDFFFFFF
S31581704AF04B4608B5406814F017F914F01EF928383A
S31581704B00431E9841024B4042184008BC994600BDED
S31581704B10F4FDFFFF4B4608B50368DB6B5A68131EBD
S31581704B2001D090470300180008BC994600BD4B46DA
S31581704B3008B50368DB6B9B68002B03D0984708BC6C
S31581704B40994600BD26204042F9E74B4608B5036871
S31581704B50DB6B5B69002B03D0984708BC994600BD17
S31581704B6026204042F9E730B5CE4600B5046882B05A
S31581704B70E46B2469002C06D0069D0095A04702B08F
S31581704B8020BCA94630BD26204042F8E7F0B5CE4616
S31581704B9000B503680400DE6B0D00B368002B0BD083
S31581704BA0020000212800FFF710FFB368290020005A
S31581704BB0984780BCB946F0BD26204042F9E7F0B5EA
S31581704BC0CE4600B588B0040006A8049100F05EF95F
S31581704BD0071E36D1069BDE69002E07D11A2014F086
S31581704BE06BFF061E02D102277F422AE00421300024
S31581704BF00EF0DCFC0390002847D033000A335B004B
S31581704C00059300231D00029300230193B54203DAB5
S31581704C10019B059A93421DDB029B049A934215DB95
S31581704C20002DE0D0002A09D0636F5A1C06D09D42B0
S31581704C3004D023672300012280331A70039BE367B4
S31581704C40E566380008B080BCB946F0BD012365675A
S31581704C500293D9E7019907AA1A2014F0E7FD002873
S31581704C6010D1079813F09CFF029901224368134073
S31581704C70002900D15340002B04D00399AB00079AC9
S31581704C8001355A50019B0133BFE70C27ACE74B4680
S31581704C9008B5002302000800994203D091691DF07E
S31581704CA08DF90300180008BC994600BD70B5CE46D3
S31581704CB000B50400B7B00E00002A00D1164A174914
S31581704CC0009304A813000A00C8212DF070F8206B98
S31581704CD00EF0A2F904A82CF04AF92063002815D0A9
S31581704CE002A904A81DF0D8F9310005002000FFF74C
S31581704CF0CEFF00280DD1002D03D1029B236404239E
S31581704D00A362280037B040BCB14670BD0C256D4298
S31581704D10F7E70500F5E7C0469F73748133E97381C0
S31581704D2010B5CE4600B50B00016C83B00400994274
S31581704D300DD8006B01AB1DF07BFD002803D10523D7
S31581704D40A362019BE36303B010BCA14610BD07202B
S31581704D504042F8E7F0B5CE4600B54C6988B00D0093
S31581704D6016001F00002C03D0200013F019FF0400D9
S31581704D7021002800FFF78BFF002823D106A9300078
S31581704D801DF08AF900281DD10E9B1A68079B002B8E
S31581704D901CDC02D1069B934218D821002800FFF7AC
S31581704DA076FF00280ED104AB0022029300233900CE
S31581704DB03000009201931DF085F9002802D10E9A78
S31581704DC0049B136008B080BCB946F0BD1C2040427C
S31581704DD0F8E74B4608B513F0E7FE002008BC994604
S31581704DE000BD4B4608B513F0DFFE030014334361F3
S31581704DF08361002008BC994600BD30B5CE4600B5AA
S31581704E0013F0D2FE040000680EF006F960680EF0A9
S31581704E1003F9230060691433984203D1002020BCC2
S31581704E20A94630BD0838FFF700FEF2E7F0B5CE46E9
S31581704E3000B50D0013F0B8FE04000C481CF074F830
S31581704E4001232B70061E0FD00378002B0CD0A0681F
S31581704E502DF091F930002DF05BF9A060002800D11A
S31581704E60287080BCB946F0BD6068FAE7A8947381F2
S31581704E704B4608B513F098FE0068002800D10248A9
S31581704E8008BC994600BDC046345C738130B5CE4648
S31581704E9000B582B0050001A91B2014F05BFD041ECC
S31581704EA003D1019813F080FE2860200002B020BCE7
S31581704EB0A94630BD10B5CE4600B583B001A8FFF7BF
S31581704EC0E5FF019C002806D003B010BCA14610BD39
S31581704ED00838FFF7AAFD2300606914339842F7D129
S31581704EE0F2E70000F0B54B46CE4600B55B68244CC0
S31581704EF0244E86B0DB0704D4002006B080BCB94648
S31581704F00F0BD05A91B2014F029FB059B002B16D03B
S31581704F1004AF39001A2014F021FB049D002DEBD1CA
S31581704F20194B361BB6101A0072430392039BAB4220
S31581704F30E2DD63681A2B0CD001354434F6E74B46B3
S31581704F40986D124A124905AB14F043F80028DFD0E8
S31581704F50D3E726680F48092231002BF0B1FF00286C
S31581704F6000D1093601235B420093059800233200F4
S31581704F702100019713F0F9FC0028DDD0BDE7C0460A
S31581704F804C957481449D7481F1F0F0F060AB7381BE
S31581704F9068AB738174AB73810020704770B5CE46F0
S31581704FA000B597B00C0006001C22002108A830F0CD
S31581704FB0C3FA00230293236B019301230B4A009357
S31581704FC008A905AB0FA8E56B05960694FEF75EF802
S31581704FD0021E05D129000FA8FEF7A6F8002801D078
S31581704FE01620404217B040BCB14670BDF14F7081FA
S31581704FF070B5CE4600B50D0083B006000021100055
S3158170500010221C00B6682CF07FFF8022D2052260A8
S3158170501000942A00030003CEFFF7A5FD03B040BCC0
S31581705020B14670BD4B4608B513F0BAFD024B0360AD
S31581705030002008BC994600BDAC207481F0B5CE467F
S3158170504000B5BCB00C001B2003A914F083FC0028AA
S3158170505021D16369002B02D0A369002B1FD00398DD
S31581705060FFF706FF65690600002D03D0280013F04F
S3158170507097FD05003700321E00D03A68244B29000F
S315817050802000FFF713FE00280CD0002E03D07B681A
S315817050900437002BEFD13CB080BCB946F0BD0220FD
S315817050A04042F8E78021012249022000FFF738FE4D
S315817050B00028F0D1226CE16B06A82BF0A5FA216C41
S315817050C004AB012206A82BF032FA01260AAD202301
S315817050D0C722290006A800962BF05BFA0028DAD041
S315817050E00C4905A805952BF073FF059B0100002BD4
S315817050F0ECD0094B18002BF0D7FE0028E6D1059825
S315817051002BF035FFA0640028E0D10C38C3E7C04688
S315817051103DD173813C717481971774814B4608B503
S315817051200800FFF7CDFC08BC994600BDF0B5CE46A8
S3158170513000B590B00C00060013F036FD09AF1C2245
S3158170514000210500380030F0F7F9E36BE16A0593C9
S3158170515000230D4A029301910093390006AB280012
S31581705160069607940897FDF791FF021E05D105995A
S315817051702800FDF7D9FF002801D01620404210B0D3
S3158170518080BCB946F0BDC0468D51708170B5CE4632
S3158170519000B50D0083B006000021100010221C009E
S315817051A0B6682CF0B1FE8022D205226000942A0066
S315817051B0030003CEFFF7D7FC03B040BCB14670BD88
S315817051C0F0B5CE4600B500248CB01E00174B039304
S315817051D0019204940594069413F0E6FC07AF144982
S315817051E03200050038002CF0F7FD019B059304977A
S315817051F003AB28680322210007F0ABFDA0420FD1D3
S3158170520002A8FDF737F9A04206D1129A029B12685D
S315817052109A4208D3129A13600CB080BCB946F0BD1D
S3158170522002204042F8E71C20FBE7C04638D17381E3
S31581705230F0F47381F0B5CE4600B52948B6B00C004E
S315817052401BF072FE002849D0102200212CF05CFEE2
S31581705250002303AA02A9070008F05EFD051E38D156
S315817052600298039B2364002811D02F212BF064FEB2
S3158170527000280CD0029E861BB01C0DF07FFF013674
S3158170528002993200E06230F0AFF8E36A9D55E36AC5
S31581705290002B00D1134B1449144A009104A8C821DC
S315817052A02CF085FD04A82BF062FE2063002802D1C4
S315817052B00C256D420DE0039805230130A3620DF034
S315817052C05DFF061EF4D0039A3900013230F08CF8F6
S315817052D0E663280036B080BCB946F0BD0125E8E7A3
S315817052E029D173819F7374813DD1738133E97381C0
S315817052F04B4608B513F054FC024B0360002008BC82
S31581705300994600BD25D1738130B5CE4600B508006A
S315817053100C00FFF7EDFB002807D10834E26F0123FB
S31581705320100018401A4200D0014820BCA94630BDF1
S31581705330F4FDFFFFF0B5FF2687B09C46002400235D
S31581705340059017000D001000360400930194013802
S315817053502ED20C9BFF20FB189B00FF24CB180022BA
S31581705360002100042402029103926246013A944616
S3158170537030D2FF26059D002000213604013F37D2A9
S31581705380019B8B4244D802D1009B834240D8029ABA
S31581705390039B009C019D12196B418B4202D837D1B8
S315817053A0824235D9009B019CC01AA14107B0F0BDDC
S315817053B0009B029308CD1A0E1C0614431A023240C2
S315817053C02243FF241B0A240223401A43029B009224
S315817053D00193BCE704CB029D160E1106314316026A
S315817053E00640120A31432240114302910395BCE76C
S315817053F008CD84461A0E1C0614431A023240224383
S31581705400FF241B0A240223401A4310006146B5E724
S3158170541001204042C117C9E7F0B5CE4600B50C00F0
S3158170542088B0002106000592069322F08DFD002139
S3158170543000250290300022F097FD029BFF269B008B
S315817054400193360283000493049A019B94466344C4
S31581705450039007930E9B9D420DDB049B01989C469E
S315817054600E9B6044DA43D2171D001540684308B01D
S3158170547080BCB946F0BD059BEF00DB190ACB0A06E5
S31581705480944660460A0E10438446FF200A02000441
S315817054900240090A6046314002430A430299022951
S315817054A053D119068C466046190E08438446FF20EF
S315817054B01902000401401B0A6046334001431943B7
S315817054C00B0A63700B0CA370130A21702271090E7B
S315817054D06371130C120EE170A371E271019BE11875
S315817054E0069BDB191F685B683A0E944660463A06DE
S315817054F010438446FF203A0200040240604602430C
S315817055003F0A039837403A43022820D11F0E180666
